:020000040800F2
:1000000000500020990000089500000895000008A5
:1000100000000000000000000000000000000000E0
:1000200000000000000000000000000000000000D0
:1000300000000000000000000000000000000000C0
:1000400000000000000000000000000000000000B0
:1000500000000000000000000000000000000000A0
:100060000000000000000000000000000000000090
:100070000000000000000000000000000000000080
:100080000000000000000000000000000000000070
:040090006D260008D1
:10009400FEE700BF2748284A10B5904207D2013A2C
:1000A400121A22F003022549043202F0FFFF244809
:1000B400244A904207D2013A121A22F00302002184
:1000C400043202F0A3FF204A136843F48033136020
:1000D40013689903FCD51D481D4C03681A4923F085
:1000E400170343F0120303605460136843F08073F2
:1000F40013600B689B01FCD54B68134A23F0030380
:1001040043F002034B60536803F00C03082BFAD14D
:100114004FF0E0210020D1F8FC2D0E4B42F080720C
:10012400C1F8FC2D58601A6842F001021A6000F010
:100134002BF8FEE7000000201400002070320008B5
:100144001400002044260020001002400020024039
:1001540000041D00001000E0042110B555230446DE
:1001640082B00DEB0100ADF80430ADF8064002F0AA
:10017400D1FE0CB902B010BD2146024802F0CAFEFD
:1001840002B010BD140000204FF400512DE9F04FCF
:10019400904A914C936989B043F01003936163686A
:1001A400DFF838A223F4700343F440136360216141
:1001B40001F044FD02F0FAFD0DF1180B4FF4005567
:1001C40002F068FE002809DA02F05EFE002800F062
:1001D400E182656102F05EFE0028F5DBC0B25528BD
:1001E400EED14FF4005502F055FE002809DA02F072
:1001F4004BFE002800F0D082656102F04BFE00281F
:10020400F5DB07464FF4005502F044FE002809DAF6
:1002140002F03AFE002800F0C182656102F03AFE65
:100224000028F5DB4FF40055C6B202F033FE002877
:1002340009DA02F029FE002800F0B282656102F0BA
:1002440029FE0028F5DB000285B23543B5F5887F29
:1002540000F2A882002D00F0C0824FF40056DFF8AF
:100264007C810AEB050902F015FE002809DA02F088
:100274000BFE002800F08C82666102F00BFE002861
:10028400F5DB08F8010BC845EDD1FBB2013B0F2BA0
:1002940000F21183DFE813F02701C8024002450190
:1002A40035011A015802AC006E00960170012C0051
:1002B40010000E02E101C001584601F0B9FB0246EC
:1002C400B2FA82F20023042052099DF8186062F306
:1002D40007039DF819509DF81A1066F30F23404A3E
:1002E40065F3174361F31F631360FFF735FF65E799
:1002F4000821584601F0CCFAB0FA80F2394B38495B
:100304005D799DF8183052094B709DF819300A70C8
:100314008B70AB1CE5B19DF81A20032BCA7017D063
:100324009DF81B20042B0A7112D09DF81C20052B6C
:100334004A710DD09DF81D20062B8A7108D0072B19
:100344009DF81E2018BF9DF81F30CA7118BF0B728C
:100354000335552305A8ADF8143004212B0A8DF874
:1003640016508DF8173002F0D5FD29461C4802F0CE
:10037400D1FD23E705A801F0F9FB0223184A194926
:10038400A2F809304B68154653600B6813600B7A6A
:10039400137201F0E5F9BDF81420134BE872AA8139
:1003A400D3F808285846AA73D3F808280421120A57
:1003B400EA73D3F8082C2A74D3F8083C1B0A6B742C
:1003C4000A4B069302F0A6FD1221284602F0A2FD74
:1003D400F4E600BF001002400010014014040020A5
:1003E400140000200000002000000140550012000D
:1003F400AB4A92F8008050789378D178177992F8C4
:1004040005E0967992F807C0127A0DB3012D9AF897
:1004140000801DD0022D9AF8010019D0032D9AF8FE
:10042400023015D0042D9AF8031011D0052D9AF836
:1004340004700DD0062D9AF805E009D0072D9AF81E
:10044400066005D0082D9AF807C018BF9AF808204E
:10045400B8F1070F3FD8051F082D3CD8DBB39842ED
:1004640039D98B4237D2884235D9BB4233D28F42F5
:1004740031D80EF1FF35032D2DD8A6F10805082D2E
:1004840029D80CF10805B54225D8402A23D8844D33
:100494002A72002268F3070260F30F2263F3174203
:1004A400002367F307036EF30F2366F3174361F327
:1004B4001F626CF31F632A606B6001F061FB5523BC
:1004C40004215846069302F025FD77E69AF8003099
:1004D400072B40F2AD8140F2552304215846069380
:1004E40002F018FD6AE602236E4A0A2013816E4B5D
:1004F400136003F1604303F6FF235360FFF72CFE00
:100504005CE69AF80030012B00F0BC81022B40F02D
:100514003381052240F202614FF4167001F026F98E
:10052400CDE7042DD7D9BAF803509AF800806B1E92
:10053400FF2B9AF801609AF80270CCD801F008F900
:10054400002800F01D81300240EA08405B4629463D
:10055400544A384300F038FC0028C0F2A4819DF8C6
:1005640018305A2B3FF4F5AE40F25543042105A848
:10057400059302F0CFFC21E605A801F0F7FA032D5C
:100584000746A8D9BAF80060059BBAF802809E42D3
:1005940095D2B8F5806F454628BF4FF4806572192F
:1005A400934280F048819D1B552304215846ADF8A1
:1005B4001A50ADF8183002F0ADFC2946B81902F013
:1005C400A9FCFBE5012D00F04D81052DBAF80000D2
:1005D40040F24E819AF803109AF80230090241EA77
:1005E40003419AF804309AF80520194344F61F652C
:1005F400431E9BB2AB423FF66EAF01F0B7F8294BF6
:1006040004211880294B5846069302F083FC0221EA
:10061400244802F07FFCD1E5032D7FF65CAF01F0A6
:1006240097F8002800F0AC809AF801309AF800108E
:100634009AF802001B0243EA0143EA1E1C491843CC
:1006440000F002FD0028BFF63AAF40F25533042112
:100654005846069302F05EFCB0E5042D7FF63BAFEE
:1006640001F076F8002800F08B80BAF803509AF86D
:100674000020691EB1F5806F9AF801309AF80200E3
:10068400BFF429AF1B0243EA02432946054A184333
:1006940000F0A4FB0028D8DB2846FFF75DFD8DE5BC
:1006A4000000002014000020544C53525500020056
:1006B40017040020052D7FF60EAF01F049F800283D
:1006C4005ED044F61F67BAF800009AF80260421E32
:1006D40092B2BA429AF803309AF804109AF8055084
:1006E4003FF6F9AE002D3FF4F6AE774A1B0243EA1B
:1006F4000643CDE900520B43052240F20261CDF8D6
:1007040008B001F091F84FF6FF72704990420880EA
:100714000CBF0220A81CE8E5032D7FF6DCAE01F037
:1007240017F868B39AF801309AF800109AF80200A2
:100734001B0243EA0143EA1E6549184300F0C2FA6A
:100744000028BFF6BCAEC6E6012D00F095809AF8ED
:10075400011011F0030108BF03219AF800000038CA
:1007640018BF012000F03AFF00F0FAFF574B187051
:100774000120FFF7F1FC21E500F0EAFF002868D131
:1007840040F2556304215846069302F0C3FB15E575
:10079400266168E5256113E5256124E5256133E5D6
:1007A400256142E54FF40056013D02F073FB002839
:1007B40007DA02F069FB70B1666102F06BFB002896
:1007C400F7DB013DF1D240F255230421584606934C
:1007D40002F0A0FBF2E42661E7E7FBB2013B0F2B3A
:1007E40069D801A252F823F0EB040008BF04000802
:1007F400DB040008DB0400087D070008DB040008B4
:10080400DB040008F5030008790300086908000800
:1008140081080008F5020008BD020008DB04000896
:10082400DB040008DB0400089AF8003003F0070337
:10083400284A137041E6552304215846ADF81A504E
:10084400ADF8183002F066FBB8F1000F3FF4B6AC17
:10085400B3E62023012205A96F208DF8143000F09F
:1008640031FA2CE6052240F202614FF41670C4E618
:10087400052240F20261B9E603216EE705A801F002
:1008840075F928E6002000F009FF5021124A1348A8
:10089400556853685B1B8342FBD90139F8D10120A9
:1008A40000F0FCFE0BE640F25533042105A8059345
:1008B40002F030FB82E440F25513042158460693BB
:1008C40002F028FB7AE400BF160000201400002088
:1008D4001704002000000020001000E03F19010070
:1008E4002DE9F0412E4D804669790022284682B0D8
:1008F400043101F01BFBB0F5606F4ED80027294E80
:1009040004460246FF21304601F00CFB6A780D23B1
:10091400314628465200009701F0B8FB98F80030A1
:10092400024631462846009701F034FB0123024673
:10093400314628460093FF2301F02CFB42F2810547
:100944004FF4887E42F29100174A1849DFF860C0DC
:10095400D761184B1763C2F804E05162C2F828C08B
:100964001462D5619163D6635463106301E0013B63
:1009740002D011688806FAD50E4B0F4A01E0013BFC
:1009840002D091680906FAD400224FF48870064B0D
:100994000A49DA611A6358600C6002B0BDE8F0815C
:1009A4000000002030140020000002400C30014000
:1009B4003006002080841E00003001402C060020F8
:1009C4002DE9F0432F4D8946697980460022284657
:1009D40083B0043101F0AAFAB0F5606F4ED8002755
:1009E400294E04460246FF21304601F09BFA009747
:1009F4006A78434631462846520001F047FB99F88D
:100A04000030024631462846009701F0C3FA01231C
:100A14000246314628460093FF2301F0BBFA42F216
:100A240081054FF4887E42F29100184A1849DFF894
:100A340064C0D761184B1763C2F804E05162C2F86E
:100A440028C01462D5619163D6635463106301E0D6
:100A5400013B02D011688806FAD50F4B0F4A01E01A
:100A6400013B02D091680906FAD400224FF4887041
:100A7400064B0B49DA611A6358600C6003B0BDE899
:100A8400F08300BF0000002030140020000002406A
:100A94000C3001403006002080841E0000300140EC
:100AA4002C0600202DE9F0412E4D80466979002264
:100AB400284682B0043101F039FAB0F5606F4ED89F
:100AC4000027294E04460246FF21304601F02AFA47
:100AD4006A78B323314628465200009701F0D6FACB
:100AE40098F80030024631462846009701F052FA41
:100AF40001230246314628460093FF2301F04AFAB7
:100B040042F281054FF4887E42F29100174A184957
:100B1400DFF860C0D761184B1763C2F804E0516274
:100B2400C2F828C01462D5619163D663546310631C
:100B340001E0013B02D011688806FAD50E4B0F4A3A
:100B440001E0013B02D091680906FAD400224FF477
:100B54008870064B0A49DA611A6358600C6002B067
:100B6400BDE8F081000000203014002000000240A5
:100B74000C3001403006002080841E00003001400B
:100B84002C0600202DE9F04F8A46464C87B0667942
:100B940094F806C0257A8146174620460AFB0C5273
:100BA400F11C059301F0C2F9B0F5606F76D80246E6
:100BB400FF2105463C4801F0B5F980230093627893
:100BC4004B4620463849520001F060FA023680460E
:100BD400BAF1000F60D04FF00009DFF8CCB0424604
:100BE40000235946204601F0ADF909F10109637863
:100BF400A279CA4503FB0288F1D1227ADFF8A890D2
:100C040003FB02820123494600932648FF2301F097
:100C1400C1F94FF4887A002142F2810C42F291002A
:100C2400224A234BDFF88CE0D161234C1163C2F8D4
:100C340004A05362C2F828E01562C2F81CC0936392
:100C4400C2F83C905563106301E0013C02D0136884
:100C54009906FAD51849194B01E0013902D09A686E
:100C64001206FAD433464FF4887E00260F4CDFF880
:100C740050C0E6612663C4F804E0059CCCF800503B
:100C8400CDE90174109C0B490648EA00009401F078
:100C940023FA07B0BDE8F08F6378AEE74FF0FF307A
:100CA400F7E700BF000000203014002000000240DD
:100CB4000C3001403006002080841E0000300140CA
:100CC4002C0600202DE9F0431646374F81467C79E7
:100CD4000022033438460D4683B0A11901F026F9E9
:100CE400B0F5606F5CD84FF000080246FF2104465F
:100CF4002E4801F017F9CDF800807A784B4652005F
:100D040038462A4901F0C2F9024676B1013DDFF8BE
:100D14009C902E4415F8013F49463846CDF8008092
:100D240001F038F9B5420246F4D101261F4DFF23E4
:100D3400294600961C4801F02DF942F28107002053
:100D44004FF4887E42F29106194A1A49DFF868C0C6
:100D5400D0611A4B1063C2F804E05162C2F828C093
:100D64001462D7619163D5635463166301E0013B58
:100D740002D011688806FAD5104B114A01E0013BF4
:100D840002D091680906FAD400204FF48871084B08
:100D94000C4AD86118635960146003B0BDE8F0834D
:100DA4004FF0FF30F9E700BF0000002030140020AE
:100DB400000002400C3001403006002080841E00F8
:100DC400003001402C06002010B51C4682B01346AA
:100DD40000940A46FFF7D6FE02B010BD46F6F07343
:100DE4002DE9F04F8E4D8BB06C78CDE90320B3FB29
:100DF400F4F32A7A3E32934240F2DF809B1A884A07
:100E04008C469279B3FBF2F1B1F5807F00F2DA807F
:100E14009342C0F0D280012940F2CF804B1E05934B
:100E2400BCF1000F00F0C5804FF0000A54467C4D21
:100E340008AFCDF808C0029B0DF11B00A3EB0A0913
:100E4400059B8DF81B40994528BF9946049BDFF804
:100E5400D08103EB0A06FFF743FD80230DF11B004D
:100E64008DF81B30FFF71EFE032398F80510320C93
:100E74008DF81C308DF81D2073BA002228460731E6
:100E8400ADF81E3001F052F8B0F5606F834655D8C6
:100E94000246FF21634801F045F8009498F80120C8
:100EA4000C23520028465F4901F0F0F80246DFF8AF
:100EB400748107AE009416F8013B4146284601F0C0
:100EC40069F8B7420246F5D10123564900932846F2
:100ED400FF2301F05FF84FF4887C42F2810042F274
:100EE40091025149514ECC610C63C1F804C0DFF842
:100EF40040C1504BC1F824C08E62C1F820B0C86113
:100F0400C1F838C0C1F83C80C1F834B00A6301E0CC
:100F1400013B02D00A689006FAD5464B464901E0E7
:100F2400013B02D08A681206FAD44FF488723E4B11
:100F3400DC611C635A60414BC3F800B008230DF117
:100F44001B008DF81B30FFF7CBFC09F101021146A1
:100F54003B4B0C200097FFF715FE06460DF11B00D6
:100F64008DF81B40FFF79EFD01230DF11B008DF84A
:100F74001B30FFF7B5FC002E1FDB9DF820305A2BE9
:100F84001BD109F1FF33052B47D9039B2D4953444A
:100F94005A1A022A19D82A4A09EB030012F8011F27
:100FA40003F8011B9842F9D1029BCA4453453FF60A
:100FB40042AF00200BB0BDE8F08F4FF0FF300BB014
:100FC400BDE8F08FFF2305932AE71A4629F0030CA6
:100FD40001394FEA990E03EB0C0651F8040B42F861
:100FE400040B9642F9D1E145DED0154E0CF1010215
:100FF400B15C914503F82E10D6D90CF10201705C56
:1010040089459854D0D9B4449CF80320CA445A540E
:10101400029B53453FF60FAFCBE7039B5344BAE71C
:1010240000000020301400200000024030060020A0
:101034000C30014080841E00003001402C0600204A
:10104400280500202A05002046F6F0732DE9F04F0C
:10105400AA4C8DB065780492B3FBF5F340F60922EF
:101064003E3B934288BF4FF480734FF0000698BF15
:10107400A34A074698BFA2FB03230AA898BFDB082C
:10108400079106938DF82860FFF72AFC61793246B0
:101094009A48043100F04AFFB0F5606F05464ED817
:1010A400DFF860920246FF21484600F03BFF0096BD
:1010B40062780C2349465200904800F0E7FF06236B
:1010C400024649468D48009600F064FF012302461B
:1010D400494600938948FF2300F05CFF4FF4887869
:1010E40042F2810C42F29100874A8849DFF820E2FB
:1010F400D661884B1663C2F804805162C2F828E0B6
:101104001562C2F81CC09163C2F83C905563106329
:1011140001E0013B02D011688906FAD57D4B7E4976
:1011240001E0013B02D08A681206FAD400224FF48F
:101134008870754B7949DA611A6358600D60012330
:1011440000260AA88DF82830FFF7CAFB0AA88DF8F4
:101154002860FFF7C5FB80230AA88DF82830FFF725
:10116400A1FC022361798DF8243032463B0C63489C
:1011740007317FBA8DF82530ADF8267000F0D6FE21
:10118400B0F5606F824656D80246FF215D4800F0F4
:10119400C9FE009662780C2352005A49574800F061
:1011A40075FFDFF8609102464F46DFF8508109ADC4
:1011B400009615F8013B3946404600F0EBFE0AABB9
:1011C400AB420246F4D101234E4900934B48FF231E
:1011D40000F0E0FE42F281054FF4887C42F2910077
:1011E400494A4A494A4FD6614A4B1663C2F804C079
:1011F40051629762C2F820A0D5619163C2F83C9015
:10120400C2F834A0106301E0013B02D011688F06DC
:10121400FAD5404B404901E0013B02D08A681606EA
:10122400FAD400224FF48870374B3C49DA611A63D0
:101234005860C1F800A0049B002B00F086800023B6
:101244009B46DFF8B8802F4E049B6179A3EB0B0318
:101254009946069B0331994528BF9946002240468A
:101264004944CDF8149000F061FEB0F5606F8246F9
:1012740065D800270246FF21304600F053FE62780D
:101284000C23520031464046009700F0FFFE024610
:10129400079B03EB0B05A944009715F8013B314666
:1012A400404600F077FEA9450246F5D101233146B8
:1012B40000934046FF2300F06DFE4FF4887C42F219
:1012C400810042F291021049114DCF610F630F4F1B
:1012D400C1F804C00F4B4F628D62C1F820A0C861F1
:1012E4008F63CE63C1F834A00A6301E0013B02D0EE
:1012F4000A689506FAD5074B074913E00000002059
:10130400CDCCCCCC30140020000002400C30014085
:101314003006002080841E00003001402C0600208E
:10132400013B02D08A681006FAD400224FF4887078
:10133400A04BA149DA611A635860C1F800A0059B6B
:101344009B44049B5B453FF67FAF00230AA88DF8BE
:101354002830FFF7A7FB01230AA88DF82830FFF7F0
:10136400BFFADFF858A2964DDFF8588200270DF136
:1013740023008DF82370FFF7B3FA61793A462846C3
:10138400043100F0D3FDB0F5606F06464CD8024638
:10139400FF218D4800F0C6FD62780C238A49520073
:1013A4002846009700F072FE052302468649284627
:1013B400009700F0EFFD02460120FF2382490090D0
:1013C400284600F0E7FD42F281004FF4887E42F2A5
:1013D40091027849DFF8F4C1CF610F63C1F804E0EA
:1013E400C1F82480C1F828C00E62C8617648C1F8EB
:1013F4003880774BC8634E630A6301E0013B02D037
:101404000A689206FAD5724B724A01E0013B02D097
:1014140091680F06FAD400224FF48870654B664930
:10142400DA611A6358600E6008234FF080090DF1E9
:1014340023008DF82330FFF753FA0DF123008DF8C4
:101444002390FFF72FFB6779A279237AF91C2846AA
:1014540003EB420200F06AFDB0F5606F064607F147
:10146400020700F297800246FF21574800F05AFD18
:1014740062780C235449CDF800905200284600F0BD
:1014840005FE814600234A464F49284600F05AFD8E
:101494006278A079002300FB02994B494A4628460A
:1014A40000F050FD0120227A0090A079FF2302442D
:1014B4006078454900FB0292284600F06BFD00224B
:1014C4004FF4887942F2810C42F291003949DFF8F5
:1014D400FCE0CA610A633C4AC1F804903C4BC1F881
:1014E4002480C1F828E00E62C1F81CC0C1F838801D
:1014F400CA634E63086301E0013B02D00A689006A8
:10150400FAD5334B334901E0013B02D08A68120615
:10151400FAD44FF000094FF4887EDFF898C0DFF862
:1015240098B0CCF81C90F200CCF83090CCF804E0E1
:10153400CBF8006002263B46274F2449CDE90167DA
:101544000AAE0096284600F0C7FD06460DF12300BA
:101554008DF82390FFF7A6FA01230DF123008DF8EF
:101564002330FFF7BDF94E450BDB9DF828305A2B8D
:1015740007D17B7813F0010308D0BAF1010A7FF494
:10158400F5AE4FF0FF300DB0BDE8F08F18460DB04A
:10159400BDE8F08F00230DF123008DF82330FFF711
:1015A40081FA01230DF123008DF82330FFF798F918
:1015B400E7E700BF000002402C060020400D0300B6
:1015C400000000200C3001403014002030060020C0
:1015D40080841E000030014028050020002833D0FC
:1015E400CA0710B403D50122284BC3F8102C8B076B
:1015F4001CD42648264CD0F8003801F0030123F00F
:101604007043244A43F03043C0F8003821705068D6
:10161400214953681B1A8B42FBD950681D491E4A45
:101624004B681B1A9342FBD910BC70474FF480538C
:10163400164AC2F8143CD2F8043C23F4702343F451
:101644004033C2F8043CD4E74FF480500F4B114AA6
:10165400D3F8001841F07041C3F80018C3F8100C17
:10166400D3F8041C21F4702141F40021C3F8041CB4
:10167400516853685B1AB3F5615FFAD30120002205
:101684000249034BC1F8140C1A7070470000014062
:1016940028060020001000E03F19010068B330B4B0
:1016A4004FF4805101254FF0030C254B254CC3F812
:1016B400105CC3F8141CD3F8041C234A21F47021D1
:1016C40041F44031C3F8041CD3F800181F4821F03A
:1016D400704141F03041C3F8001884F800C05168EB
:1016E40053685B1A8342FBD950681749174A4B6801
:1016F4001B1A9342FBD930BC70474FF48050104BF7
:10170400114AD3F8001841F07041C3F80018C3F827
:10171400100CD3F8041C21F4702141F40021C3F807
:10172400041C516853685B1AB3F5615FFAD3012056
:1017340000220349034BC1F8140C1A70704700BF10
:101744000000014028060020001000E03F190100BD
:10175400024B1878003818BF012070472806002073
:10176400014B1878704700BF28060020F0B54FF4ED
:10177400805705460E46284B83B08DF80720D3F8D2
:101784000028264C42F07042C3F80028C3F8107CAD
:10179400D3F8042C22F4702242F40022C3F8042C5F
:1017A400626863689B1AB3F5615FFAD30121502420
:1017B400194B1A4A1A48C3F8141C516853685B1A27
:1017C4008342FBD9013CF8D14FF480520121124BE2
:1017D400C3F8101CC3F8142CD3F8042C22F4702280
:1017E40042F44032C3F8042CD3F8002822F07042AB
:1017F40042F03042C3F8002803220A4B1A703DB16C
:1018040030460DF107010134FFF7DAF8A542F7D1AC
:10181400284603B0F0BD00BF00000140001000E006
:101824003F190100280600202DE9F04F85B0DDF8AE
:1018340038808DF80F20DDE90FBA18B30F469946AA
:101844000646002402E00134B4421BD038460DF1B0
:101854000F01A5B2FFF7B4F805F01F031F2BF2D157
:101864005B46424641464846CDF800A0FFF78AF958
:101874000028E8D19AF800305A2BE4D1284605B064
:10188400BDE8F08F4FF6FF75284605B0BDE8F08F30
:101894002DE9F0470026DFF8708186B098F805300E
:1018A4008DF817609F1C8F4200F2AB80D91C574BF8
:1018B400054698F8082098F806001B780244002B87
:1018C40000F08680404600F031FBB0F5606F0446BE
:1018D40000F29780DFF838912246FF21484600F055
:1018E40021FB8023009398F801207E23494652006F
:1018F400454800F0CBFB8246002352464946424805
:1019040000F020FB0123009398F8082098F8063093
:101914004946134498F801203B4802FB03A2FF23E5
:1019240000F038FB4FF4887A002042F2810E42F234
:10193400910C3849384ADFF8E480C861384B0863B1
:10194400C1F804A04A62C1F828800C62C1F81CE006
:101954008A63C1F83C904C63C1F830C001E0013B9C
:1019640002D00A689006FAD52D4B2E4901E0013BBE
:1019740002D08A681206FAD43B464FF488790027CD
:10198400DFF890C0DFF8A0800DF1170ECCF81C70C2
:101994002249CCF830701C48CCF80490E200C8F816
:1019A4000040CDE9017E009500F096FB36B11F4A58
:1019B400D2F8003843F07043C2F80038002820DB26
:1019C40028785A3818BF4FF0FF3006B0BDE8F087CA
:1019D400164E4046D6F8003823F0704343F03043A7
:1019E400C6F8003800F0A2FAB0F5606F044698BF5C
:1019F40001267FF66FAFD6F8003843F07043C6F87F
:101A040000384FF0FF30E0E70000002028060020F7
:101A140030140020000002400C3001403006002049
:101A240080841E00003001402C060020000001408C
:101A3400F0B480244349444AD1F8003823F0704379
:101A440043F04053C1F80038C1F814485168536852
:101A54005B1AB3F5615FFAD380253A4C3A49D4F85E
:101A64000838C3F380130370C4F8105852684B68E5
:101A74009B1AB3F5615FFAD3324A334CD2F8083873
:101A8400C3F380134370D2F8003823F0704343F05B
:101A94008043C2F800384A6863689B1AB3F5615FF3
:101AA400FAD30025294B04241B784FF4887CAB42DD
:101AB4000CBF4FF070414FF0304142F2810742F2C7
:101AC4009106204AD2F80838C3F380138370D2F801
:101AD400003823F070430B43C2F800381C491D4BF7
:101AE4001D4ACD610D63C1F804C04B628A620C6269
:101AF400CF618B63194BCB634C63194B0E6301E0CD
:101B0400013B02D00A689406FAD5154B154901E049
:101B1400013B02D08A681206FAD400234FF4887479
:101B24000B4A1149D3611363546002780B6032B9D4
:101B34004078013818BF4FF0FF30F0BC70474FF0C9
:101B4400FF30FAE700000140001000E02806002002
:101B5400000002400C300140240500209C310008A4
:101B640080841E00003001402C0600200346024AF7
:101B7400024812681A6070472C06002030060020C4
:101B840000200321F0B44FF48877042442F2810644
:101B940042F29105204B9A6942F480529A615A6943
:101BA40042F001025A611D4A1D4B10601B788B40A4
:101BB40003F0380343F44173136051601368194907
:101BC40043F040031360184B184AC86108634F6020
:101BD4004B628A62164A0C62CE618B63CA63154BF0
:101BE4004C630D6301E0013B02D00A689006FAD50C
:101BF400104B0A4901E0013B02D08A681206FAD46C
:101C04000023F0BC4FF48870064A0B49D361136378
:101C140050600B60704700BF00100240003001406C
:101C240000000020000002400C3001402405002088
:101C34009C31000880841E002C0600204FF4805143
:101C44004FF0030CF0B4002001253E4A3E4E936948
:101C54004FF4887743F00C0393613C4B0424C3F89E
:101C6400101CD3F8041C21F4702141F40021C3F8A2
:101C7400041CD3F8001C21F00F0141EA0C01C3F845
:101C8400001CC3F8145C3070D3F8001842F28106CB
:101C940021F4700141F43001C3F8001842F29105B7
:101CA400D3F8001821F0706141F08061C3F8001886
:101CB400D3F8001841F07041C3F80018936924491F
:101CC40043F480539361536943F001035361A2F5D4
:101CD4006042204B10601B7803FA0CF303F03803C6
:101CE40043F441731360C2F804C0136843F0400323
:101CF4001360194B194AC86108634F604B628A62CA
:101D0400174A0C62CE618B63CA63164B4C630D6336
:101D140001E0013B02D00A689006FAD5114B124942
:101D240001E0013B02D08A681206FAD40023F0BC19
:101D34004FF48870064A0D49D361136350600B60F9
:101D4400704700BF00100240280600200000014038
:101D540000000240000000200C3001402405002057
:101D64009C31000880841E00003001402C060020B5
:101D74008446F0B54068DCF80840DCF80050A04226
:101D84001CD2FF234FEAD00E15F80E6000F00707AF
:101D9400FB4023EA060313F0FF0306D013E015F813
:101DA4000E30DB4313F0FF030DD10EF10103B4EB4E
:101DB400C30F23F0604E4FEAC300F0D84FF0FF305A
:101DC400CCF80440F0BD1B06B3FA83F320F00700FF
:101DD40003449C42F2D9FF2613604FEAD30E15F850
:101DE4000E0003F00702D64030401BD1064603E044
:101DF40015F80E000022B0B90EF10100C2F108027C
:101E0400B4EBC00F20F0604E16444FEAC003EFD885
:101E1400A34202D92644F61A2346CCF80430002003
:101E24000E60F0BD00260006B0FA80F0F61A23F02A
:101E3400070303441E44EBE72DE9F0478578804609
:101E44000C469946DDB116464FF0FF0E06F007002A
:101E5400C0F10803AB42194628BF29464FEAD60C05
:101E64005B1A14F80C702EFA00F00EFA03F3034018
:101E740027EA03076D1A04F80C700E44E6D107260E
:101E8400FF2598F801309F1849FA06F2D1074CBF94
:101E940098F8032098F80220DAB13B4603F0070AC9
:101EA400CAF1080C9445E64628BF9646D808ACEB20
:101EB4000E0C215C25FA0AFA05FA0CFC0CEA0A0C51
:101EC40021EA0C01B2EB0E0221547344E6D198F8D6
:101ED4000130013E721C18461F44D5D198F80250B7
:101EE400EDB138464FF0FF0E00F00701C1F10803D1
:101EF400AB421A4628BF2A464FEAD00C9B1A14F864
:101F04000C602EFA01F10EFA03F30B4026EA0306E5
:101F1400AD1A04F80C601044E6D198F80100384476
:101F2400BDE8F0870AB101F071B87047437801EB5E
:101F34008101901C00EB410003FB00F00730C00856
:101F4400023070472DE9F0410BB3C478DCB115467B
:101F54004FF0FF0805F0070ECEF10803A3429C469C
:101F640028BFA446EF08A3EB0C03CE5D28FA0EFEAF
:101F740008FA03F303EA0E0326EA0306B4EB0C049F
:101F8400CE556544E6D140781044BDE8F0818478AC
:101F9400DCE700BF2DE9F047089D80460C469946D2
:101FA400002D70D0C578DDB116464FF0FF0E06F057
:101FB4000700C0F10803AB42194628BF29464FEA7F
:101FC400D60C5B1A14F80C702EFA00F00EFA03F318
:101FD400034027EA03076D1A04F80C700E44E6D197
:101FE4000726FF2598F801309F1849FA06F2D10711
:101FF4004CBF98F8032098F80220DAB13B4603F06E
:10200400070ACAF1080C9445E64628BF9646D80844
:10201400ACEB0E0C215C25FA0AFA05FA0CFC0CEA6E
:102024000A0C21EA0C01B2EB0E0221547344E6D1EE
:1020340098F80130013E721C18461F44D5D198F817
:102044000250EDB138464FF0FF0E00F00701C1F128
:102054000803AB421A4628BF2A464FEAD00C9B1A03
:1020640014F80C602EFA01F10EFA03F30B4026EA81
:102074000306AD1A04F80C601044E6D198F8010088
:102084003844BDE8F08785788DE700BF2DE9F0413D
:10209400012482B005461F4600945A230E469DF83B
:1020A4002080FFF777FF6B79024663B15C1EE30083
:1020B40027FA03F3DBB231462846FFF7BDFE013CA5
:1020C400631C0246F3D143463146284602B0BDE8BC
:1020D400F041FFF7B1BE00BF2DE9F043042AA5B0DB
:1020E400019194BF0021012149000746DDF8B08029
:1020F40003920291FBB1C14603EB08060A250024B2
:1021040014AA04A901A8FFF733FE00284FEA4404E7
:1021140031DB3A79049B9A4298BF44F00104013DB3
:10212400EED1B8F1000F02D0640889F8004009F13B
:102134000109B145E2D12D9B002B00F017822E9BA3
:102144005D1E2D9BEE1897F806904B46B9F1000FD3
:1021540000F0028204A914AC01EB890801E04145B6
:102164000ED0224601A8FFF703FE002801F1040166
:1021740004F10404F3DA4FF0FF3025B0BDE8F08336
:10218400B9F1020F40F2108209F1FF32B9F1040FE4
:10219400D2B240F2F881DDE916141598631A091ACF
:1021A40002D08B4228BF0B46052A40F2E1811898E1
:1021B400041B13B19C4228BF1C4619990B1A14B175
:1021C400A34228BF2346072A40F2DB811A9C611AE6
:1021D40013B1994228BF19461B98031B11B18B42B6
:1021E40028BF0B46092A40F2D3811C9C211A13B143
:1021F400994228BF19461D98031B11B18B4228BF71
:102204000B460B2A40F2C6811E9C201A13B1984239
:1022140028BF18461F990B1B10B1834228BF0346E1
:102224000D2A40F2B981209C611A13B1994228BF4A
:1022340019462198031B11B18B4228BF0B460F2A64
:1022440040F2AE812299081A13B1984228BF184669
:10225400239B5B1A10B1834228BF0346102124AA92
:1022640024A802EB810200EB810052F8402C50F8C4
:10227400440C121A13B19A4228BF1A464B1C9945B2
:1022840040F2CD8024A800EB8300034650F8400CB4
:1022940053F8443CC01A12B1904228BF10468B1C1C
:1022A400994540F27F8124AA02EB8302134652F837
:1022B400402C53F8443CD21A10B1824228BF024643
:1022C400CB1C994540F2AB8024A800EB8300034665
:1022D40050F8400C53F8443CC31A12B1934228BF3F
:1022E40013460A1D914540F2598124A800EB82044B
:1022F40054F8402C54F8440C121A13B19A4228BFD3
:102304001A464B1D994540F28A8024A800EB8304A9
:1023140054F8403C54F8440C1B1A12B1934228BFA1
:1023240013468A1D914540F2398124A800EB8204AA
:1023340054F8402C54F8440C121A13B19A4228BF92
:102344001A46CB1D99456AD924A800EB830454F896
:10235400403C54F8440C1B1A12B1934228BF134654
:1023640001F10802914540F2198124A800EB82048E
:1023740054F8402C54F8440C121A13B19A4228BF52
:102384001A4601F10903994549D924A800EB8304AD
:1023940054F8403C54F8440C1B1A12B1934228BF21
:1023A400134601F10A02914540F2F88024A800EB9B
:1023B400820454F8402C54F8440C121A13B19A4273
:1023C40028BF1A4601F10B03994528D924A800EB2C
:1023D4008300034650F8400C53F8443CC01A12B131
:1023E400904228BF104601F10C03994540F2DA806F
:1023F40024AA02EB830454F8403C54F8442C9B1A5E
:1024040010B1834228BF03460D31894540F2C6808E
:10241400DDE92212521A13B19A4228BF1A46012A40
:1024240040F2A880049BB3EB520F2CBF012300237E
:10243400520805995B00914228BF43F00103B9F1AA
:10244400020F00F089800699914234BF00210121D6
:10245400B9F1030F41EA43037ED00799914234BF97
:1024640000210121B9F1040F41EA430374D0089912
:10247400914234BF00210121B9F1050F41EA430320
:102484006AD00999914234BF00210121B9F1060FA4
:1024940041EA430360D00A99914234BF00210121EB
:1024A400B9F1070F41EA430356D00B99914234BF67
:1024B40000210121B9F1080F41EA43034CD00C99E2
:1024C400914234BF00210121B9F1090F41EA4303CC
:1024D40042D00D99914234BF00210121B9F10A0F74
:1024E40041EA430338D00E99914234BF00210121BF
:1024F400B9F10B0F41EA43032ED00F99914234BF37
:1025040000210121B9F10C0F41EA430324D01099B1
:10251400914234BF00210121B9F10D0F41EA430377
:102524001AD01199914234BF00210121B9F10E0F43
:1025340041EA430310D01299914234BF0021012192
:10254400B9F10F0F41EA430306D01399914234BF06
:102554000021012141EA4303FA79A9EB0202083A76
:10256400D34005F8013FB5427FF4EDAD002004E609
:10257400042174E6049B3A799A428CBF0023012318
:1025840057E706216BE6DDE915320221D21A75E61A
:10259400082164E60A2162E60C2160E61A463EE759
:1025A4000E215CE602463AE7049B3A799A428CBFD4
:1025B40000230123B9F1020FCED13AE7914228BF9B
:1025C400114670B5214D914229803AD211F03F0F46
:1025D4000CBF0122002240291D4B0E4628BF402675
:1025E40001291A702FD90346B41E24F0010E821C4F
:1025F4001849964493F801C013F8022B42EA0C22BE
:102604009E4521F8042BF5D124F0010302339E42A8
:1026140004D9114A1A44C35C5200138040F23F7338
:102624000E4A304496800E4A0E4910602A88921B46
:102634002A800A88134083F4004383F0B0030B809C
:1026440070BD0022C7E70023E1E700BF3422002069
:102654003322002040600040203000200060004011
:1026640038220020005C00402DE9F04FDFF8DC92B6
:1026740093B0B9F8442012F41C4F1AD093B20AE074
:1026840013F480516DD11F0470D4B9F8442012F4AE
:102694001C4F93B20DD059050ED41A05F0D54FF244
:1026A400FF73A9F84430B9F8442012F41C4F93B2D4
:1026B400F1D113B0BDE8F08F00234FF6FF3B202685
:1026C4004FF4007760254FF4044443F20F724FF047
:1026D400800E40F20F70DFF87882A9F844B088F8D1
:1026E4000030DFF87082DFF870C2A8F80030DFF83D
:1026F4006C829B49A8F80030DFF86882DFF868A292
:1027040088F800308CF80030DFF860C2AAF8003096
:102714008CF80030DFF858C28CF80030A9F850303B
:10272400A9F800700E808B800D818C81B9F800307F
:102734001A4082F4304282EA0E02A9F80020B9F865
:10274400002092B282EA060303F0300302401343EE
:1027540043F4004343EA0E03A9F80030A9F84CE01F
:1027640093E74EF6FF73A9F844308EE703F00F03A6
:1027740003F1805202F5B85292001488A4B2C3B196
:10278400012B44D0022B20B24AD0002806DA40F2B2
:102794000F7311880B4043F08003138023067FF5E9
:1027A40074AF40F20F7311880B4043F4004313805D
:1027B4006BE7260443D421067FF567AF40F20F731D
:1027C400624A11880B4043F40043684913800B7834
:1027D4002BB143F08003A2F84C3000230B70624D00
:1027E4002888002849D15A4A117800293FF44DAF6E
:1027F40040F23F7310705A4A9080A2F580621188AB
:102804000B4083F4004383F0B00313803DE740F2B0
:102814000F734E4A91880B4043F40043938034E78E
:102824000028C0F29C8122067FF52FAF40F20F737F
:10283400464A11890B4043F40043138125E740F2D3
:102844000F76474941488A8925051FFA82FC028888
:1028540002EA060242F08002028040D4444D2B7802
:10286400002B40F00F8243F20F730288134083F46D
:10287400304383F0800303809DE7402828BF402035
:102884003C4F01283E68334600F06782A0F1020CF9
:102894002CF00104B21C3849144493F801E013F8F5
:1028A400022B42EA0E229C4221F8042BF5D12CF093
:1028B400010C0CF10203834271D340F23F732849A7
:1028C400064488802A883E60121A2A801F4A11888A
:1028D4000B4083F4004383F0B0031380D5E6B1F8D2
:1028E400C070234DB1F8C420B1F8C8C0B1F8CC1001
:1028F400C7F3072C17F060072B7093B28AB23DD050
:10290400202F00F0148243F20F71028892B202EA7F
:10291400060382F0100202F03002134343F4004332
:1029240043F08003038003880B4083F4304383F037
:102934008003038043F20F73044A11880B4083F42D
:10294400304383F08003138035E700BF005C004010
:10295400332200203E2200203C220020402200207E
:10296400006000403D22002034220020322200205A
:10297400312200203822002040600040BCF10B0FBF
:102984002AD8DFE81CF05900170029001700290095
:102994004300D5002900CD0063005E001700A74A5C
:1029A4003344624452001B78138086E7ACF1220161
:1029B400012911D80022A24BA2491A8040F23F7388
:1029C4000A70A1498A80A14A11880B4083F400430C
:1029D40083F0B0031380ADE740F20F7543F20F723A
:1029E4009A48018889B281F0100303F0300329402A
:1029F4000B4343F4004343F08003038003881340F4
:102A040083F4304383F08003038093E7002140F292
:102A14003F728F4803F07F030370894B1980894B01
:102A24001970894B998089490B88134083F40043BA
:102A340083F0B0030B807DE702218648FFF7BEFDDB
:102A440078E701218448FFF7B9FD73E7DBB21D1E67
:102A540018BF0125002701954FF00108A02540F279
:102A64000F7E7A4B7849A3F8048048F280000D82E7
:102A74008F829E8843F20F7CB6B286F0200505F063
:102A8400300506EA0E0635434FF0020B48F20046C5
:102A94004FF0E00A05439D809D8840F23F720CEAA6
:102AA400050505439D80A3F808B0A1F828A08E85EC
:102AB40040F203661D890CEA050585F4304585F06E
:102AC40080051D811D89154005431D81634D85F8D1
:102AD40000809E814FF490760E868F869D89ADB2DC
:102AE40005EA0E0E85F0200505F0300545EA0E05D1
:102AF40005439D819D890CEA050C40EA0C009881F0
:102B0400019D574805704E4807804E4807708F80D6
:102B140019880A4082F4004282F0B0021A8009E760
:102B24004F4B50481B7801210370FFF747FD01E725
:102B3400190A012900F01F81022900F017810329D5
:102B44007FF44AAFDBB2032B3FF646AF4649474812
:102B540031F8131050F82300FFF730FDEAE63A4B42
:102B640040F2FE329B8DC3F3090C6046402828BF17
:102B740040201A4200F0F380871E27F001060DF171
:102B84000A033B4D1E4402AA35F8043B02329BB2B1
:102B940002F8023C1B0A02F8013CB242F4D127F0CD
:102BA40001030233834207D2324A1A445200128884
:102BB40048336B4403F8402C40F20F73234A2E4EE3
:102BC40015892B4043F0800313812C4ABCF1000F7C
:102BD4001DD02B4F02AD0DE0138815F801CB9BB22D
:102BE40007F803C01388884203F10103C3F3090300
:102BF40013800CD9B2F800C0338801319BB2013B79
:102C0400A3EB0C03C3F3090389B2002BE4D11288AC
:102C140033889BB2013B9B1A13F4707300F08480D9
:102C240043F20F730121094A1089034083F43043AE
:102C340083F080031381094B1970F4E522300020DE
:102C4400342200203322002000600040005C004059
:102C540032220020BC310008B83100083D22002097
:102C64003C22002030220020A0310008A8310008B6
:102C7400C0610040E03000203E22002040220020BD
:102C84004422002040F2FE33CCF30906402E37469E
:102C940028BF40271CEA030315D0B81E20F0010CFE
:102CA4000DF10A0336499C4402AA31F8043B02326E
:102CB4009BB202F8023C1B0A02F8013C9445F4D191
:102CC40020F0010302339F4207D92E4A1A445200CE
:102CD400128848336B4403F8402C062E08D92A4B3B
:102CE400029A1A60BDF80C209A809DF80E209A7101
:102CF400002140F23F7243F20F732448297001808F
:102D0400234801702348818023490888024082F4C3
:102D1400004282F0B0020A800A88134083F43043F0
:102D240083F080030B8046E51C4A13707BE5BCF1FD
:102D3400210F16D03FF63AAEBCF1200F7FF44CAE13
:102D440001232B7043F20F73134A11880B4083F451
:102D5400304383F080031380ECE5114A23E60B46ED
:102D640020E707210848FFF729FCE3E543210D4844
:102D7400FFF724FCDEE512210B48FFF71FFCD9E521
:102D8400C0600040603000200C000020342200208D
:102D94003322002000600040005C00403D220020FF
:102DA40040600040183200085C3200084FF4805044
:102DB4004FF0140C2F4A3049936910B443F00403C4
:102DC4009361D1F804382D4A23F4702343F440333B
:102DD400C1F80438C1F814082948516853685B1ACB
:102DE4008342FBD9BCF1010CF7D1234C2148D4F820
:102DF4000438224923F4702343F48023C4F80438AC
:102E0400D4F8043823F4704343F48043C4F80438FA
:102E1400C36943F40003C361036943F4000303611A
:102E240052684B689B1AB3F5347FFAD34FF0010C08
:102E3400104A144C1369114823F400031361A4F8D5
:102E440040C04A6843689B1AB3F5347FFAD3002222
:102E54004FF41C444FF0E0214FF48010094BA3F8C9
:102E64004020A3F84420A3F8404010BCC1F800015E
:102E7400704700BF0010024000000140001000E055
:102E84003F190100005C0040014B1878704700BFF7
:102E94003C22002010B41A491A4C22880B8892B2A2
:102EA4009BB29A4228D00B88174A9BB2D05C0B88FD
:102EB400164A0133C3F309030B801378C0B2CBB9AC
:102EC40024880B889BB2013B1B1B13F4707F11D029
:102ED40072B613786BB943F20F7301240C49B1F83D
:102EE40008C003EA0C0383F4304383F080030B81AE
:102EF400147062B610BC70474FF0FF30FAE700BFA1
:102F04003E22002040220020442200203D220020B6
:102F1400005C00402DE9F04F374D83B02B78002B37
:102F24005DD000295BD04FF0000C40F23F7A48F2AC
:102F3400B009324CDFF8C8B002E02B78002B4ED039
:102F4400A38803F03003302BF7D0A1EB0C03402B04
:102F54009E4628BF4FF0400E012B00EB0C0849D0D1
:102F640008F1FF32CDF804C001239446254E1CF825
:102F7400032018F80370023342EA07229E4526F81C
:102F8400042BF4D8AEF1020323F001039A1C72451A
:102F9400DDF804C026D3F4441FFA8EFEABF814E027
:102FA400A38861450AEA030389EA0303A380C7D817
:102FB4008B0614D1114A01E02B7883B1938803F076
:102FC4003003302BF8D0002040F23F730C49888244
:102FD40091880B4083F4004383F0B003938003B0E3
:102FE400BDE8F08F9044084A1A44520098F8003023
:102FF4001380D0E7034AF9E73C220020005C00403C
:103004000060004040610040A230002070B5860797
:1030140047D0541E002A3ED00346CAB201E0013C08
:1030240039D303F8012B9D07F9D1032C2CD9CDB248
:1030340005EB05250F2C1A4605EB054534D9A4F1FB
:10304400100C2CF00F0603F1100EB6444FEA1C1CB2
:10305400C2E90055C2E9025510327245F8D10CF1AB
:10306400010214F00C0F03EB021204F00F0C13D046
:10307400ACF1040323F003030433134442F8045B68
:103084009342FBD10CF003042CB1C9B21C4403F8E5
:10309400011BA342FBD170BD64461346002CF4D13E
:1030A400F9E703461446C0E7A446E1E7844641EA4B
:1030B400000313F0030349D1403A23D30B680360A0
:1030C4004B6843608B688360CB68C3600B690361A2
:1030D4004B6943618B698361CB69C3610B6A03628A
:1030E4004B6A43628B6A8362CB6AC3620B6B036372
:1030F4004B6B43638B6B8363CB6BC3634030403157
:10310400403ADBD230320BD30B6803604B68436028
:103114008B688360CB68C36010301031103AF3D2EF
:103124000C3205D351F8043B40F8043B043AF9D27D
:10313400043208D0D2071CBF11F8013B00F8013B50
:1031440001D30B8803806046704700BF082A13D35D
:103154008B07B1D010F00303AED0C3F10403D21A2D
:10316400DB071CBF11F8013B00F8013BA4D331F885
:10317400023B20F8023B9FE7043AD9D3013A11F805
:10318400013B00F8013BF9D20B7803704B78437094
:103194008B78837060467047FFFFFFFF04001E00BA
:1031A4002000120014320008F4310008D431000861
:1031B400C0310008000000000000000012035400A9
:1031C4004C005300520053005700530032000000DB
:1031D400200354004C0053005200200053005700B9
:1031E400530020004200720069006400670065001B
:1031F4001E03740065006C0069006E006B005F00C4
:10320400700072006F006A006500630074000000C3
:10321400040309040902430002010080FA090400BE
:103224000001020200000524001001052401000130
:10323400042402020524060001070583030800FF95
:1032440009040100020A0000000705810240000091
:1032540007050202400000001201000202000040C3
:0C32640083044057000201020301000037
:10327000020C030806030A011000000000C201004E
:043280000000080042
:040000050800009956
:00000001FF
